:030000000218FBE8
:0C18FB00787FE4F6D8FD758122021942C6
:041F5C0082340000CB
:101A8800EFC39430400CEFD39439500674D02FFF35
:101A98008022EFC39441400CEFD394465006EF24C4
:101AA800C9FF8010EFC39461400AEFD394665004D5
:101AB800EF24A9FFEF540FC454F0FFEDC394304056
:101AC8000CEDD39439500674D02DFD801EEDC394CF
:101AD800414008EDD394465002800CEDC394614018
:101AE8000AEDD394665004ED24A9FDED540F4FFF81
:011AF80022CB
:0A1AF9007862EBF208EAF208E9F265
:101B030008120C0A000000007862E2FB08E2FA08FF
:101B1300E24A4B7005FFFEFDFC227865120C0A00B9
:101B23000000007862E2FB0808E2F92401F218E2FF
:101B3300FA3400F2120B33601F7865E2FC08E2FD11
:101B430008E2FE08E22401FFE43EFEE43DFDE43C3E
:101B5300FC7865120BFE80CB7865E2FC08E2FD0899
:051B6300E2FE08E2FFB4
:011B6800225A
:0A1D55007800EBF208EAF208E9F268
:101D5F007806EBF208EAF208E9F27800E2FB08E213
:101D6F00FA08E24A4B7004FBFAF922780408E2FF02
:101D7F0024FFF218E2FE34FFF2EF4E60177806E20E
:101D8F00FB0808E2F92401F218E2FA3400F2ED122E
:0E1D9F000B7980D77800E2FB08E2FA08E2F93F
:011DAD002213
:0A0F88007869EBF208EAF208E9F2DA
:100F92007871EBF208EAF208E9F2786CE2F908E219
:100FA200FA08E27874C9F208EAF208E9F27869E22A
:100FB200FB08E2FA08E24A4B600C08E2FB08E2FA9C
:100FC20008E24A4B70077B007A007900227874E2CB
:100FD200FB08E2FA08E2F9C0038A83898278710881
:100FE200E2FA08E2F9D3D0E0E99582EA9583402E4D
:100FF20008E2FB08E2FA08E2F9786FE2FE08E2FF93
:10100200E92FF9EA3EFAC0038A8389820808E2FAE4
:1010120008E2F9D3D0E0E99582EA9583404EE4787C
:1010220077F208F2786FE2FE08E2FF7877E2FC08D6
:10103200E2FDC39FEC9E40030210C37874E2FB08FA
:10104200E2FA08E2F98D828C83120B4CFF7871E28E
:10105200FB08E2FA08E2F98D828C83EF120B8B789F
:1010620078E22401F218E23400F280B8786FE2FFED
:1010720008E27877CFF208EFF27877E2FE08E2FF33
:10108200D39400EE940040397874E2FB08E2FA0847
:10109200E2F9EF24FFFFEE34FFFE8F82F583120B9D
:1010A2004CFD7871E2FB08E2FA08E2F98F828E8346
:1010B200ED120B8B7878E224FFF218E234FFF28013
:0B10C200B87869E2FB08E2FA08E2F9E6
:0110CD002200
:0A1987007809EBF208EAF208E9F231
:10199100780FEBF208EAF208E9F27809E2FB08E2D3
:1019A100FA08E24A4B600C08E2FB08E2FA08E24A54
:1019B1004B70077B007A00790022780CE2FB08E289
:1019C100FA08E2F9120B33602C780CE2FB0808E20A
:1019D100F92401F218E2FA3400F2120B33FF78090C
:1019E100E2FB0808E2F92401F218E2FA3400F2EF0E
:1019F100120B7980C57809E2FB08E2FA08E2F9E402
:0D1A0100120B79780FE2FB08E2FA08E2F917
:011A0E0022B5
:101B69007812EBF208EAF208E9F27812E2FB08E2ED
:101B7900FA08E2F9120B33FF602908E2FB08E2FADE
:101B890008E2F9120B33601BB507187814E2240137
:101B9900F218E23400F27817E22401F218E2340074
:101BA900F280C77815E2FB08E2FA08E2F9120B3372
:101BB900FF3395E0FE7812E2FB08E2FA08E2F91237
:0F1BC9000B33FD3395E0FCC3ED9FFFEC9EFE2236
:101CFA007818120BFE7818E2FC08E2FD08E2FE08EA
:101D0A00E2FF7818120BCCEF120B797818E2FC0874
:101D1A00E2FD08E2FE08E2FF7810120BCC90000107
:101D2A00EF120B8B7818E2FC08E2FD08E2FE08E2EB
:101D3A00FF7808120BCC900002EF120B8B78180870
:0B1D4A000808E2FF900003EF020B8B83
:0A120A00786BEBF208EAF208E9F253
:1012140008120C0A00000000120B33FFE4FCFDFE70
:10122400786E120BFE786EE2FC08E2FD08E2FE081E
:10123400E2FF7808120BDF786E120BFE786EE2FB89
:1012440008E2F908E2FA08E2CBF8C000C001C002E3
:10125400C003786BE2FB08E2FA08E2F9900001129D
:101264000B4CFFD003D002D001D000EB4FFFEAFEBD
:10127400E9FDE8FC786E120BFE786EE2FC08E2FDF4
:1012840008E2FE08E2FF7808120BDF786E120BFE0C
:10129400786EE2FB08E2F908E2FA08E2CBF8C00053
:1012A400C001C002C003786BE2FB08E2FA08E2F96D
:1012B400900002120B4CFFD003D002D001D000EBFF
:1012C4004FFFEAFEE9FDE8FC786E120BFE786EE251
:1012D400FC08E2FD08E2FE08E2FF7808120BDF7862
:1012E4006E120BFE786EE2FB08E2F908E2FA08E2FD
:1012F400CBF8C000C001C002C003786BE2FB08E277
:10130400FA08E2F9900003120B4CFFD003D002D08C
:1013140001D000EB4FFFEAFEE9FDE8FC786E120B0A
:0E132400FE786EE2FC08E2FD08E2FE08E2FF41
:011332002298
:0C1EB400781DEBF208EAF208E9F2AD0735
:101EC000E4FFFE7820E6B401020F2212251FE4FD94
:101ED00012251F7820E2FD12251F7821E2FD122530
:101EE0001F781DE2FB08E2FA08E2F908E2FD08E2C9
:101EF0007867CDF208EDF2121C44AB07AA067D0309
:071F00007F07121C9E7F0108
:011F070022B7
:062114007865EDF2AC0756
:10211A00E4FFFE7820E6B401020F22AD0412251F67
:10212A007D0112251FE4FD12251F7D0112251F784E
:10213A0065E27003FD80027D0112251FAB07AA0626
:09214A007D037F07121C9E7F013A
:012153002269
:02185A00AD07D8
:10185C00E4FFFE7820E6B401020F2212251F7D0260
:10186C0012251FE4FD12251F7D0412251FC006C082
:10187C0007786AE2FC08E2FD08E2FE08E2FF78184D
:10188C00120BCCAD07D007D00612251FC006C0071F
:10189C00786AE2FC08E2FD08E2FE08E2FF7810122A
:1018AC000BCCAD07D007D00612251FC006C0077899
:1018BC006AE2FC08E2FD08E2FE08E2FF7808120B7F
:1018CC00CCAD07D007D00612251FC006C007786A1A
:1018DC00E2FC080808E2FFE4AD07D007D0061225A9
:0E18EC001FAB07AA067D037F07121C9E7F011B
:0118FA0022CB
:0C1F08007823EBF208EAF208E9F2AD07DA
:101F1400E4FFFE7820E6B401020F2212251F7D03A0
:101F240012251F7826E2FD12251F7827E2FD1225CF
:101F34001F7823E2FB08E2FA08E2F908E2FD08E26E
:101F44007867CDF208EDF2121C44AB07AA067D03B4
:071F54007F07121C9E7F01B4
:011F5B002263
:06218F007865EDF2AC07DB
:10219500E4FFFE7820E6B401020F22AD0412251FEC
:1021A5007D0412251FE4FD12251F7D0112251F78D0
:1021B50065E2FD12251FAB07AA067D037F07121CEA
:0321C5009E7F01F9
:0121C80022F4
:02145A00AD07DC
:10145C009000007820E6B401037F0122AF82AE83B6
:10146C0012251F8E838F827D0512251F8E838F82FE
:10147C00E4FD12251F8E838F827829E2FC08E2FDA1
:10148C0008E2FE74FFFFE47BFFFAF9F8C3120BBB12
:10149C007017AF82AE837D0112251F8E838F8278E9
:1014AC0029080808E2FD02155B7829E2FC08E2FD38
:1014BC0074FFFFFEE47BFF7AFFF9F8C3120BBBAF9E
:1014CC0082AE8370047D0280487D0412251F8E83BA
:1014DC008F82C006C0077829E2FC08E2FD08E2FE14
:1014EC0008E2FF7818120BCCAD07D007D0061225F6
:1014FC001F8E838F82C006C0077829E2FC08E2FDAC
:10150C0008E2FE08E2FF7810120BCCAD07D007D032
:10151C000612251F8E838F82C006C0077829E2FC35
:10152C0008E2FD08E2FE08E2FF7808120BCCAD07DA
:10153C00D007D00612251F8E838F82C006C0077875
:10154C0029E2FC080808E2FFE4AD07D007D0061238
:10155C00251F8E838F82AE83AF82AB07AA067D03D5
:07156C007F07121C9E7F01A6
:011573002255
:0C26C1007865ECF208EDF2120B33FF22FA
:0C26CD007865ECF208EDF2120B33FF22EE
:0B26E5007869ECF208EDF212120A22F4
:101E06007879EFF27837E2FFFD7838E2FEC39DFD80
:101E1600E49400FCED64014C603CEFD39E401878DE
:101E260038E2FF7837E29FFFE49400FEC3EF941791
:101E3600EE64809480501F7837E2C39000B095829C
:101E4600E4958340037499F27879E2FF7837E2FEED
:071E560004F2A806A6072212
:101FAD00782DEBF208EAF208E9F208ECF208EDF20E
:101FBD00E408F208F218F208F27830E2FE08E2FFC7
:101FCD0008E2FC08E2FDC39FEC9E5022782DE2FB57
:101FDD0008E2FA08E2F98D828C83120B4CFF121E77
:0E1FED00067833E22401F218E23400F280CBD1
:011FFB0022C3
:100C4900E4784EF208F208F208F2C37835E2941F0C
:100C590018E2940050281226A5EFD39400401F12E1
:100C6900230D783408E2FD2401F218E2FC3400F285
:100C7900747A2DF58274003CF583EFF080CCC3784B
:100C890035E2940718E294005003020DFD784EE214
:100C9900FE08E2FFC37835E29FFD18E29EFCC3ED32
:100CA9009407EC94005003020DB7747A2FF58274FF
:100CB900003EF583E064556004784F8015784EE274
:100CC900FE08E2FF247BF58274003EF583E064AA06
:100CD9006006E22401020D98747C2FF58274003EAF
:100CE900F583E06008784FE22402020D98784EE21D
:100CF900FC08E2FD247EF58274003CF583E0F8E40B
:100D09007951F3E819F3747F2DF58274003CF5836A
:100D1900E02407FFE433FE7851E22FF218E23EF2B5
:100D2900E2FE08E2FFD39426EE94004007784FE2F2
:100D39002403805B784EE2FC08E2FDC37835E29D2E
:100D4900FD18E29CFCD3EF9DEE9C5062784EE2FECA
:100D590008E2247AF974003EFA7B017851E224FF13
:100D6900FD18E234FFFC122047AD077850E2FA087B
:100D7900E2FB784EE2FE08E2FF2BFBEE3AFA7479C9
:100D89002BF58274003AF583E06D600CE22403F2DE
:100D990018E23400F2020C961210CE7850E2FE08E6
:100DA900E2FF784FE22FF218E23EF2020C96784EFB
:100DB900E2FE08E2FFC37835E29FFD18E29EFCF2ED
:100DC90008EDF2D39400EC94004029747A2FF97459
:100DD900003EFA786C7401F208EAF208E9F2783414
:100DE900E2FF08E2786FCFF208EFF27B017A00792F
:040DF9007A120F88D3
:010DFD0022D3
:1026940078377499F27838F2E47820F6782276FF65
:0126A4002213
:052728007821E6FF220C
:0D26B400E47821F6FBFA7D037F04021C9EF2
:05272D00781FE6FF2209
:0225F600AD072F
:1025F800E4FF781FF6FE12251FEFFB7A007D037FAC
:0426080005021C9E0D
:052732007822E6FF2201
:0A270600E4FBFA7D037F0E021C9E27
:101F6000602C00E7010202020304040205010602DC
:101F70000702080109040A020B020C020D020E04FA
:101F80000F041002110212021302140215011602AC
:032737000226D99E
:10260C007800E2FE08E2FFE4FCFD786A120BFE7F24
:04261C000102185A45
:102337001226E57865120BFE7865E2FC08E2FD08D7
:10234700E2FE08E2FF786A120BFE7F0612185AEFC8
:08235700B401037F01227F00A5
:01235F00225B
:102360001226E57865120BFE7865E2FC08E2FD08AE
:10237000E2FE08E2FF786A120BFE7F0712185AEF9E
:08238000B401037F01227F007C
:012388002232
:102620001226CDAD077F0912218FEFB401037F0180
:03263000227F0006
:012633002284
:1022E2001226E5900113120BF2900113E0FCA3E019
:1022F200FDA3E0FEA3E0FF786A120BFE7F0A12182C
:0A2302005AEFB401037F01227F00AF
:01230C0022AE
:102389001226E57865120BFE7865E2FC08E2FD0885
:10239900E2FE08E2FF786A120BFE7F0B12185AEF71
:0823A900B401037F01227F0053
:0123B1002209
:1023B2001226E57865120BFE7865E2FC08E2FD085C
:1023C200E2FE08E2FF786A120BFE7F0C12185AEF47
:0823D200B401037F01227F002A
:0123DA0022E0
:1023DB001226E57865120BFE7865E2FC08E2FD0833
:1023EB00E2FE08E2FF786A120BFE7F0D12185AEF1D
:0823FB00B401037F01227F0001
:0124030022B6
:102404001226E57865120BFE7865E2FC08E2FD0809
:10241400E2FE08E2FF786A120BFE7F1012185AEFF0
:08242400B401037F01227F00D7
:01242C00228D
:10242D001226E57865120BFE7865E2FC08E2FD08E0
:10243D00E2FE08E2FF786A120BFE7F1112185AEFC6
:08244D00B401037F01227F00AE
:012455002264
:102456001226E57865120BFE7865E2FC08E2FD08B7
:10246600E2FE08E2FF786A120BFE7F1212185AEF9C
:08247600B401037F01227F0085
:01247E00223B
:10247F001226E57865120BFE7865E2FC08E2FD088E
:10248F00E2FE08E2FF786A120BFE7F1312185AEF72
:08249F00B401037F01227F005C
:0124A7002212
:1024A8001226E57865120BFE7865E2FC08E2FD0865
:1024B800E2FE08E2FF786A120BFE7F1412185AEF48
:0824C800B401037F01227F0033
:0124D00022E9
:102634001226C1AD077F15122114EFB401037F01E7
:03264400227F00F2
:012647002270
:1024D1001226E57865120BFE7865E2FC08E2FD083C
:1024E100E2FE08E2FF786A120BFE7F1612185AEF1D
:0824F100B401037F01227F000A
:0124F90022C0
:0A0DFE00785FEBF208EAF208E9F270
:100E0800EF24FAB411004003020F83900E2175F00D
:100E180003A4C58325F0C58373020E54020E6A022B
:100E28000F83020E80020E96020EAC020EC2020E54
:100E3800D8020F83020F83020EEE020F03020F186F
:100E4800020F2D020F42020F57020F6C785FE2FB70
:100E580008E2FA08E2F908E2FC08E2FD1223370288
:100E68000F7F785FE2FB08E2FA08E2F908E2FC0883
:100E7800E2FD122360020F7F785FE2FB08E2FA08C6
:100E8800E2F908E2FC08E2FD122620020F7F785FF3
:100E9800E2FB08E2FA08E2F908E2FC08E2FD1222A5
:100EA800E2020F7F785FE2FB08E2FA08E2F908E263
:100EB800FC08E2FD122389020F7F785FE2FB08E25B
:100EC800FA08E2F908E2FC08E2FD1223B2020F7FF9
:100ED800785FE2FB08E2FA08E2F908E2FC08E2FDC2
:100EE8001223DB020F7F785FE2FB08E2FA08E2F9DF
:100EF80008E2FC08E2FD122404807C785FE2FB082B
:100F0800E2FA08E2F908E2FC08E2FD12242D806703
:100F1800785FE2FB08E2FA08E2F908E2FC08E2FD81
:100F28001224568052785FE2FB08E2FA08E2F908D8
:100F3800E2FC08E2FD12247F803D785FE2FB08E2D4
:100F4800FA08E2F908E2FC08E2FD1224A8802878F1
:100F58005FE2FB08E2FA08E2F908E2FC08E2FD12A7
:100F680026348013785FE2FB08E2FA08E2F908E227
:0F0F7800FC08E2FD1224D17864EFF27864E2FF06
:010F87002247
:03273A007F1622E5
:08271A007857EFF208EDF222FE
:102154007B2270223A2200627061716A6677397953
:102164006C61746D74796400222C2276223A220008
:10217400312E302E3000222C226D223A0032007D86
:0B218400000000000000000000000050
:031F900081360097
:07251F00786EEEF208EFF206
:1025260024B6F974003EFA7B01ED120B79E2240120
:0B253600F218E23400F2E2FE08E2FFBF
:012541002277
:081C3C007857E2FF7E007BFFF8
:101C44007864EBF208EAF208E9F27862EEF208EF5F
:011C5400F29D
:101C550024B6F974003EFA7B01C002C00108E2F91E
:101C650008E2FA08E2786CC9F208EAF208E9F278C3
:101C750067E2FF08E2786FCFF208EFF2D001D002F9
:101C8500120F887867E2FE08E2FF7863E22FF21808
:081C9500E23EF2E2FE08E2FF6C
:011C9D002224
:102047007870EBF208EAF208E9F208ECF208EDF230
:10205700E408F2FFFED37874E29F18E29E402178ED
:1020670070E2FB0808E2F92401F218E2FA3400F200
:10207700120B33FD7875E22DF20FBF00010E80D5EC
:042087007875E2FF87
:01208B002232
:101E5D007870EBF208EAF208E9F208ECF208EDF21C
:101E6D007870E2FB08E2FA08E24A4B60397874E2D6
:101E7D00700218E26030787308E2FF24FFF218E276
:101E8D00FE34FFF2EF4E601E7870E2FB08E2FA08B6
:101E9D00E2F9120B33FF1227377872E22401F218A0
:071EAD00E23400F280D022B4
:071C9E00786EEAF208EBF298
:101CA5009000B07455F0A374AAF0A3EDF0A3EFF083
:101CB50018E2FC08E2FDECA3F0EDA3F0E22407F244
:101CC50018E23400F27B017A0079B008E224FFFDC6
:101CD50018E234FFFC122047AE07786EE2FC08E2FA
:101CE500FD24AFF58274003CF583EFF07B017A00AB
:051CF50079B0021E5D44
:1024FA00E4FF7836E2700CFEFD12251F783674016F
:10250A00F280077E007D0112251FEFFB7A007D0312
:05251A00E4FF021C9E1D
:10168900E47857F2087C007DFE7BFF7A217985FE9C
:101699007F0A120B0D7BFF7A217954121AF97867A8
:1016A900EEF208EFF27A217954121C3C7857EFF2E6
:1016B9007BFF7A21795B121AF97867EEF208EFF26B
:1016C9007A21795B121C3C7857EFF27BFF7A2179FA
:1016D9006C121AF97867EEF208EFF27857E2FF7E9A
:1016E900007BFF7A21796C121C447857EFF27BFF5B
:1016F9007A217974121AF97867EEF208EFF27857BD
:10170900E2FF7E007BFF7A217974121C447857EF3F
:10171900F27BFF7A21797A121AF97867EEF208EFEB
:10172900F27857E2FF7E007BFF7A21797A121C4416
:101739007857EFF27BFF7A217981121AF97867EEEF
:10174900F208EFF27857E2FF7E007BFF7A21798178
:10175900121C447857EFF27BFF7A217983121AF928
:101769007867EEF208EFF27857E2FF7E007BFF7AA6
:10177900217983121C447857EFF2FB7A007D037FAD
:0417890001021C9E9F
:0A271000E4FBFA7D037F02021C9E29
:04228900785EEFF29A
:10228D0012273AE4FEEEC39F501C75F002EEA42413
:10229D00E7F582E5F03400F583E0FD785EE2FCEDD4
:0822AD006C60030E80DFAF0638
:0122B5002206
:0A1A0F007857EBF208EAF208E9F25A
:101A1900120B3308F2FD900001120B4C785BF29027
:101A29000002120B4C785CF208E4F2900003120BEE
:101A39004CFF785DE22FF218E23400F2AF05122272
:101A49008975F002EFA424E8F582E5F03400F58306
:101A5900E0FF785BE26F60037F0022785AE2FF784B
:101A690057E2FB08E2FA08E22404F9E43AFA785C5E
:0E1A7900E2FD08E27862CDF208EDF2120DFEF9
:011A8700223C
:0710CE007852EEF208EFF288
:1010D50018E2FE08E2247DF58274003EF583E0788F
:1010E5001CF6E6120C23110A00110D011110021154
:1010F5001303113004113505113A0611DF0811E209
:101105000E000012090224FA0216890227107852ED
:10111500E2FE08E22480F58274003EF583E0782241
:10112500F6E4FBFA7D037F03021C9E7821760122FB
:10113500781F7601227852E2FC08E2FD247EF582D2
:1011450074003CF583E0FE747F2DF58274003CF558
:1011550083E0FDEE781AF6ED08F6E47818F608F661
:10116500C37919E7781B9619E71896400302120907
:101175007852E2FC08E2FD781926FBEC1836FA7481
:10118500822BF58274003AF583E0F8E47955F3E8AB
:1011950019F374832BF58274003AF583E0FF7855D3
:1011A500E22FF218E23400F274802DF974003CFA53
:1011B5007B017818E6FE08E629F9EA3EFA121A0FCD
:1011C5007856EFF27855E22404FF18E23400FE78F1
:1011D50019EF26F618EE36F6808602260C7852E2CE
:1011E500FE08E2FF2480F58274003EF583E0781D59
:1011F500F674812FF58274003EF583E0FEE6FFADBF
:041205000612271A8C
:0112090022C2
:0F26A5007838E2FF18E26F60037F01227F002286
:10230D007837E2FF08E2FE6F601BC39000B0EE95D8
:10231D0082E4958340037499F27838E2FF04F2A8C1
:09232D0007E67818F67818E6FFBF
:012336002284
:1000260054656D3A0048756D3A0000F8F8F8F8F82E
:10003600F8F80000000000000000F83C060606067E
:10004600FCF00F3C206060303F0F001018FCFE00F3
:1000560000000000007F7F000000180C060606C6A0
:10006600FC386070786E63616060180C068282C628
:100076007C181830606060213F0E0080C07018FE4A
:10008600FE000F0D0C0C0C7F7F0CE0FE464646C6AC
:1000960086003820606060303F0F80C0F0584EC246
:1000A600C0801F3B60606060311F0606060686E65C
:1000B6003E0E0000703E0300000038ECC68686C681
:1000C6007C103F31616060613F1EFC8C060606862F
:1000D600FC780101633B1F07010000000000C030EF
:1000E6000C0360180601000000000000000000007C
:1000F60000000000000000000000000038FCFC3892
:1001060000000000000D0D000000000E1E00001E85
:100116000E00000000000000000020F8F820F8F8AB
:100126002000020F0F020F0F0200387C444747CC15
:100136009800060C0838380F070030300080C06081
:1001460030000C060301000C0C0080D87CE4BCD8FF
:100156004000070F0808070F080000101E0E0000D9
:10016600000000000000000000000000F0F80C0491
:100176000000000003070C0800000000040CF8F063
:1001860000000000080C0703000080A0E0C0C0E0EB
:10019600A0800002030101030200008080E0E080ED
:1001A60080000000000303000000000000000000C3
:1001B60000000000101E0E000000808080808080FD
:1001C60080000000000000000000000000000000A9
:1001D60000000000000C0C00000000000080C06061
:1001E60030000C06030100000000F8F80CC40CF8FF
:1001F600F00003070C080C070300001018FCFC00B5
:1002060000000008080F0F080800080C84C4643CAE
:1002160018000E0F0908080C0C00080C444444FC96
:10022600B800040C0808080F0700C0E0B098FCFCF2
:100236008000000000080F0F08007C7C444444C482
:100246008400040C0808080F0700F0F84C4444C06A
:100256008000070F0808080F07000C0C0484C47CF4
:100266003C0000000F0F00000000B8FC444444FCB2
:10027600B800070F0808080F0700387C444444FC00
:10028600F800000808080C070300000000303000E2
:1002960000000000000606000000000000303000EC
:1002A60000000000080E060000000080C060301844
:1002B600080000000103060C080000202020202072
:1002C600200000010101010101000008183060C092
:1002D600800000080C0603010000181C04C4E43C5E
:1002E60018000000000D0D000000F0F008C8C8F866
:1002F600F000070F080B0B0B0100E0F0988C98F04C
:10030600E0000F0F0000000F0F0004FCFC4444FC4B
:10031600B800080F0F08080F0700F0F80C04040CCB
:10032600180003070C08080C060004FCFC040CF873
:10033600F000080F0F080C07030004FCFC44E40C53
:100346001C00080F0F08080C0E0004FCFC44E40C0B
:100356001C00080F0F0800000000F0F80C84848CC5
:10036600980003070C0808070F00FCFC404040FCFF
:10037600FC000F0F0000000F0F00000004FCFC043F
:1003860000000000080F0F08000000000004FCFC3D
:100396000400070F08080F07000004FCFCC0E03C3F
:1003A6001C00080F0F00010F0E0004FCFC040000E7
:1003B6000000080F0F08080C0E00FCFC387038FC13
:1003C600FC000F0F0000000F0F00FCFC3870E0FC73
:1003D600FC000F0F0000000F0F00F8FC040404FCE3
:1003E600F800070F0808080F070004FCFC44447CCB
:1003F6003800080F0F0800000000F8FC040404FC95
:10040600F800070F080E3C3F270004FCFC44C4FC20
:100416003800080F0F00000F0F00183C6444C49CFE
:100426001800060E0808080F0700001C0CFCFC0C40
:100436001C000000080F0F080000FCFC000000FC78
:10044600FC00070F0808080F0700FCFC000000FC72
:10045600FC000103060C06030100FCFC000000FC86
:10046600FC00070F0E030E0F07000C3CF0E0F03CFB
:100476000C000C0F0301030F0C00000C7CC0C07CA9
:100486003C000000080F0F0800001C0C84C4643CEC
:100496001C000E0F0908080C0E000000FCFC0404EA
:1004A600000000000F0F080800003870E0C0800050
:1004B60000000000000103070E0000000404FCFC1D
:1004C6000000000008080F0F0000080C0603060CC9
:1004D600080000000000000000000000000000000E
:1004E60000002020202020202020000003070400F8
:1004F6000000000000000000000000A0A0A0E0C076
:100506000000070F0808070F080004FCFC2060C065
:100516008000000F0F08080F0700C0E020202060B1
:100526004000070F0808080C040080C06024FCFC8B
:100536000000070F0808070F0800C0E0A0A0A0E011
:10054600C000070F0808080C040040F8FC440C180B
:100556000000080F0F0800000000C0E02020C0E0E7
:100566002000276F48487F3F000004FCFC4020E045
:10057600C000080F0F00000F0F00000020ECEC0079
:1005860000000000080F0F0800000000000020EC2B
:10059600EC0000307040407F3F0004FCFC80C060EF
:1005A6002000080F0F01030E0C00000004FCFC00E5
:1005B60000000000080F0F080000E0E060C060E0E7
:1005C600C0000F0F0007000F0F0020E0C02020E042
:1005D600C000000F0F00000F0F00C0E0202020E039
:1005E600C000070F0808080F070020E0C02020E021
:1005F600C000407F7F48080F0700C0E02020C0E011
:100606002000070F08487F7F400020E0C06020E000
:10061600C000080F0F080000000040E0A020206086
:100626004000040C09090B0E04002020F8FC2020D1
:1006360000000000070F080C0400E0E00000E0E006
:100646000000070F0808070F080000E0E00000E0C0
:10065600E0000003070C0C070300E0E0008000E068
:10066600E000070F0C070C0F07002060C080C06079
:100676002000080C0703070C0800E0E0000000E07B
:10068600E000474F4848683F1F00606020A0E060D8
:1006960020000C0E0B09080C0C00004040F8BC04AE
:1006A6000400000000070F080800000000BCBC00A2
:1006B60000000000000F0F000000000404BCF8401A
:1006C60040000008080F07000000080C040C080C86
:0A06D6000400000000000000000016
:10178D00C2A07F647E00120003D2A07F647E00128F
:10179D0000037F2C7E00121DB17FC87E0012000356
:1017AD007F2E7E00121DB17FC87E001200037F2F99
:1017BD007E00121DB17F0A7E001200037FAE7E00F7
:1017CD00121DB17F387E00121DB17FB87E00121D33
:1017DD00B17FC87E00121DB17FA07E00121DB17FAA
:1017ED00547E00121DB17FF37E00121DB17F047E69
:1017FD0000121DB17F937E00121DB17F447E001239
:10180D001DB1121DAE7F407E00121DB1121DAE7FA7
:10181D00AB7E00121DB17F677E00121DB17F7B7EF6
:10182D0000121DB17F117E00121DB1E4FFFE121DCD
:10183D00B17F247E00121DB17F817E00121DB17F0C
:0D184D00337E00121DB17FAF7E00021DB181
:10225B00785BEDF2C2A1E214F21FEF24B0FFE4337E
:10226B00FE121DB1785BE2C4540F2410FFE433FE61
:0E227B00121DB1785BE2540FFF7E00021DB110
:1021C900E4784FF2784FE2FFC394105024EF04FFF4
:1021D9007D0112225BE4784EF2E4FFFE12220278BE
:1021E9004EE204F2E2C3948040EF784FE204F280B9
:0121F900D312
:0121FA0022C2
:031DAE00E4FFFE51
:071DB100785CEEF208EFF28E
:101DB800C2A1C2A4E408F2C2A27F02122682785D00
:101DC800E230E704D2A38002C2A3D2A27F02122685
:101DD80082785CE2FE08E27801088005C333CE33DE
:101DE800CED8F9FF785CEEF208EFF218EEF208EFC1
:0D1DF800F208E204F2E2C3940840BCD2A15C
:011E050022BA
:0721FB00F583E493FF7E0071
:10220200C2A1D2A4E4FDC2A2EF30E704D2A38002AD
:10221200C2A3D2A2EF7801088005C333CE33CED851
:09222200F9FF0DEDB408DFD2A1B3
:01222B002290
:10000300E4FDFCC3ED9FEC9E5015E4FBFA0BBB0033
:0F001300010ABA03F8BBDEF50DBD00010C80E455
:0100220022BB
:10268200E4FEEEC39F500AE4FD0DEDB40AFB0E809A
:01269200F156
:012693002224
:081574007BFF7D087C007E0076
:10157C00784EEEF208EFF208ECF208EDF208EBF21E
:06158C0008EAF208E9F292
:10159200E408F208F2C2A17852E2FB08E2FA08E299
:1015A200F908E2FE08E2F5828E83120B4CFFD39417
:1015B200005003021688EF9420500302167AEFD3EC
:1015C200947E400302167AEF24E07858F2E434FF66
:1015D20018F2E47859F208F27859E2FE08E2FFC301
:1015E2009402EE94005062784E08E22FFF0808E25F
:1015F200FD12225BE4FBFA7859E2FE08E27803C3AB
:1016020033CE33CED8F92BFDEE3AFC7958E3C4F849
:10161200540FC868FF19E3C454F048FE74F02FF564
:101622008274003EF583E5822DF582E5833C12212A
:10163200FB0BBB00010AEB64084A70BB785AE22438
:1016420001F218E23400F2808F7856E22401F21897
:10165200E23400F27851E22408F218E23400F2D3C4
:1016620008E2947F18E294005003021599E4F2080C
:10167200F2784FE2240280057856E22401F218E261
:061682003400F20215998C
:01168800223F
:0A1BD800784EEFF208EDF208EBF290
:101BE200C2A1D3940D5052E47851F27851E2FFC36E
:101BF20094025045784EE22FFF08E2FD12225BE488
:101C0200FC7851E275F008A4FFEC7A002FFFEA3568
:101C1200F0FE18E275F010A42440F582E5F03400DD
:101C2200F583E5822FF582E5833E1221FB0CECB4AD
:091C320008CF7851E204F280B2FF
:011C3B002286
:1025DB007A0079267F011215747A00792B7F03120A
:0B25EB001574E4FB7D077F0B021BD87A
:031F930081390091
:10256400D3EF9400EE94004015E4FDE4FC0CECB4CD
:0E25740001FB0DEDB472F4EF1F70E51E80E266
:012582002236
:1025A1007592D57591237596BF75954075B2A0E466
:0D25B100F5B1D288C2A8D28AC2AAD2AF2248
:1025BE007839E204F2E2FFC3941E5003C2B722EF51
:0C25CE00C3943C5003D2B722E47839F2E9
:0125DA0022DE
:1020D1007F327E001225641225A112274912178D25
:1020E1001221C9122583122542122694120C497815
:1020F1006A120C0A0000012C7F0112185A786A1228
:102101000C0A000000627F0212185A1225DB122508
:03211100BE80D9B4
:09265C007F02122665D2927F0272
:0A266500EFD3940140031F80F72219
:01274900226D
:1026480000D290D2927F04122665C2907F0412268F
:0426580065C29222A3
:10266F0000C292C2907F04122665D292D2907F044C
:03267F00022665CB
:0B26F000C29200C29012265CC292222F
:0B26FB00C29200D29012265CC2922214
:0222B600AE0771
:1022B80000C292E4FDEE5480C41313135401600469
:1022C800D2908002C290EE25E0FE12265CC2927F78
:0922D800021226650DEDB408DCCC
:0122E10022DA
:02222C00AE07FB
:10222E00E4FD00FCC2927F02122665D292ED25E0FB
:10223E00FD3090010D7F011226650CECB408E5EE21
:0C224E0070051226FB80031226F0AF057D
:01225A002261
:101F96000E08AB0102030405060708090A0B0CBA72
:061FA60001170001160006
:1025420053877F759850438E40538EFE4389207582
:102552008DD9758BD9D28ED29CC29FD29ED2AFD248
:02256200AC22A9
:0C26D900C2AC8F993099FDC299D2AC229E
:03002300021FFCBD
:101FFC00C0E0C0F0C083C082C0D075D000C000C0AB
:0D200C0001C002C003C004C005C006C0072B
:10201900781E760030980CA699E6FF7816F6121EFF
:0320290006C29854
:10202C00D007D006D005D004D003D002D001D00008
:0B203C00D0D0D082D083D0F0D0E032B2
:03273D0002264829
:0327400002266FFF
:032743000222B6B9
:032746000226F078
:06272200E4FF12222C224C
:1025830012273D7F881227431227467F27122743AE
:0E2593001227467F37122743122746022740A1
:0D208C00783BEBF208EAF208E9F208EDF209
:102099007FFFE4FE783EE2FDEEC39D502A783BE2E5
:1020A900FB08E2FA08E2F98E82758300120B4C6F85
:1020B900FF7D08EF30E70725E06431FF8004EF2555
:0720C900E0FFDDEF0E80CD0A
:0120D00022ED
:1013330012273D7F881227431227467FE012274357
:10134300122746E4FF12274312274612273D7F89BF
:10135300122743122746122722783FEFF21227461D
:101363001227227840EFF21227461227227841EF04
:10137300F21227461227227842EFF212274612274B
:10138300227843EFF21227461227227844EFF21213
:1013930027407BFE7A00793F7D0212208C7841E260
:1013A3006F60030214567BFE7A0079427D0212209D
:1013B3008C7844E26F6003021456783FE2FE08E241
:1013C300FDAC067842E2FE08E2FBEE7849F2EB0858
:1013D300F2AE04AF05E41209837B007AFF797F78CC
:1013E300471208E17B007AC079DA78441207D8E41F
:1013F300FBFA79E178C31206E71209BC784BEEF2E7
:1014030008EFF27849E2FC08E2FDE41209837B006D
:101413007AFF797F78471208E1E4FBFA79C87842CA
:101423001207D81209BC784DEFF2784BE2FE08E2BE
:10143300FFEE3395E0FDFC786A120BFE7F01121874
:101443005A784DE2FFE4FCFDFE786A120BFE7F0240
:0614530002185A12258365
:011459002270
:1006E000020A28E86480F8E933E83360110460F016
:1006F000ED33EC337009E8FCE9FDEAFEEBFF220480
:1007000060DED3EB9FEA9EE99DE8C2E78CF0C2F77A
:1007100095F0400CE8CCF8E9CDF9EACEFAEBCFFB46
:100720001209F385D0F05804700320D5B3E80470A3
:10073000075002B2D5020A3292D5EC0460F7E4CC3D
:10074000C0E0C398F8603B94186008400DD0E0FB0F
:10075000020A0AE4FBFAC9FC8028E830E406E4C98E
:10076000FBE4CAFCE830E305E4C9CACBFCE8540763
:100770006010F8C3E913F9EA13FAEB13FBEC13FC6E
:10078000D8F130F52FC3E49CFCEF9BFFEE9AFEED11
:1007900099FDD0E0FBEF4E4D4C701222DB03020AB4
:1007A0002FEC2CFCEF33FFEE33FEED33FDED30E7A5
:1007B000EB020A0AEF2BFFEE3AFEED39FDD0E0FB2B
:1007C00050130BBB0003020A32ED13FDEE13FEEFD4
:0807D00013FFEC13FC020A0AFE
:1007D800EC4D6011E8497017ED33EC3304600DE41B
:1007E800FCFFFEFD22E933E8330470F8020A281200
:1007F80009F358046009E4CC248150062850090202
:100808000A32284003020A2FC0E0EB4A7044B9803C
:1008180006D0E0FB020A1EEF4E701CBD8008EBFFFD
:10082800EAFEE9FD80EBE98DF0A4FEE5F00208C1DF
:10083800E9CDF9EAFEEBFFEF89F0A4FCE5F0CE89FB
:10084800F0A42EFFE435F0CD89F0A42DFEE435F0B8
:100858008067EF4E7005BD80D780C3EF8BF0A4ACE6
:10086800F0EE8BF0A42CFCE435F0F8EF8AF0A42C21
:10087800E5F038FCE433CB8DF0A42CFCE5F03BF834
:10088800EE8AF0A42CFCE5F038F8E433CF89F0A424
:100898002CFCE5F038CF3400CE89F0A42FFFE5F02A
:1008A8003EFEE433C98DF0A42EFEE5F039CD8AF082
:1008B800A42FFFE5F03EFEE43DFD33D0E0FB5007FA
:1008C8000BBB000F020A32EC2CFCEF33FFEE33FEB9
:0608D800ED33FD020A0AE7
:1008DE00020A32EC5D046005E859047003020A282E
:1008EE001209F3580460F6EC4860F2EC7004FDFE59
:1008FE00FF22C860DB2481C85009C39860025006ED
:10090E00020A2F9850CAF582E9294B4A7005AB822C
:10091E00020A1E75F0007C1A7880C3EF9BEE9AEDEA
:10092E0099400DC3EF9BFFEE9AFEED99FDE842F064
:10093E00DC23ACF0D0E0FFD0E0FED0E0FDAB8220B7
:10094E00E7101BEB60BAEC2CFCEF33FFEE33FEED41
:10095E0033FD020A0AE803F830E705C0F075F0002F
:10096E00EF2FFFEE33FEED33FD40B830E7C280AA25
:10097E0075F020800E75F010800575F0087D007EF4
:10098E00007F003392D530D503120BADEC334010FF
:10099E00EF33FFEE33FEED33FDEC33FCD5F0ED22FD
:0E09AE00E5F0247EA2D513CC92E7CDCEFF2239
:1009BC00EDD2E7CD33EC3392D524814006E4FFFE33
:1009CC00FDFC22FCE4CFCECDCC24E0501174FF8092
:1009DC00EDC3CC13CCCD13CDCE13CECF13CF04702F
:0709EC00F030D5DE020BAD77
:1009F300E9D2E7C933E833F892D5EDD2E7CD33EC4A
:070A030033FC5002B2D522C2
:100A0A00EC30E7100FBF000C0EBE00080DBD00044D
:100A1A000BEB6014A2D5EB13FCED92E7FD2274FFF9
:100A2A00FCFDFEFF22E480F8A2D574FF13FC7D8052
:030A3A00E480EF66
:101907000220D1E493A3F8E493A34003F68001F205
:1019170008DFF48029E493A3F85407240CC8C333E1
:10192700C4540F4420C8834004F456800146F6DFB0
:10193700E4800B0102040810204080901F5CE47EC5
:10194700019360BCA3FF543F30E509541FFEE493A5
:10195700A360010ECF54C025E060A840B8E493A36C
:10196700FAE493A3F8E493A3C8C582C8CAC583CA97
:10197700F0A3C8C582C8CAC583CADFE9DEE780BE4F
:011FAC000034
:100A3D00E709F608DFFA8046E709F208DFFA803E9B
:100A4D0088828C83E709F0A3DFFA8032E309F60888
:100A5D00DFFA8078E309F208DFFA807088828C83F0
:100A6D00E309F0A3DFFA806489828A83E0A3F608A4
:100A7D00DFFA805889828A83E0A3F208DFFA804C7E
:100A8D0080D280FA80C680D4806980F28033801055
:100A9D0080A680EA809A80A880DA80E280CA8033BE
:100AAD0089828A83ECFAE493A3C8C582C8CCC58336
:100ABD00CCF0A3C8C582C8CCC583CCDFE9DEE78006
:100ACD000D89828A83E493A3F608DFF9ECFAA9F085
:100ADD00EDFB2289828A83ECFAE0A3C8C582C8CCDB
:100AED00C583CCF0A3C8C582C8CCC583CCDFEADEF4
:100AFD00E880DB89828A83E493A3F208DFF980CC56
:100B0D0088F0EF60010E4E60C388F0ED2402B4044E
:100B1D000050B9F582EB2402B4040050AF232345F5
:060B2D008223900A8D7383
:100B3300BB010689828A83E0225002E722BBFE02C0
:090B4300E32289828A83E49322F3
:100B4C00BB010CE58229F582E5833AF583E022505E
:100B5C0006E92582F8E622BBFE06E92582F8E222A8
:0D0B6C00E58229F582E5833AF583E49322C2
:100B7900BB010689828A83F0225002F722BBFE015B
:020B8900F32255
:100B8B00F8BB010DE58229F582E5833AF583E8F0A0
:100B9B00225006E92582C8F622BBFE05E92582C84C
:020BAB00F22234
:0E0BAD00C3E49FFFE49EFEE49DFDE49CFC2259
:100BBB00EB9FF5F0EA9E42F0E99D42F0E89C45F090
:010BCB002207
:100BCC00E8600FECC313FCED13FDEE13FEEF13FF07
:030BDC00D8F1222B
:100BDF00E8600FEFC333FFEE33FEED33FDEC33FC74
:030BEF00D8F12218
:0C0BF200ECF0A3EDF0A3EEF0A3EFF02276
:0C0BFE00ECF208EDF208EEF208EFF22233
:100C0A00D083D082E493F208740193F208740293B9
:090C1A00F208740393F2740473F0
:100C2300D083D082F8E4937012740193700DA3A360
:100C330093F8740193F5828883E473740293686074
:060C4300EFA3A3A380DF74
:00000001FF
